{
  "contractName": "Election",
  "abi": [
    {
      "constant": true,
      "inputs": [],
      "name": "candidatesCount",
      "outputs": [
        {
          "name": "",
          "type": "uint256"
        }
      ],
      "payable": false,
      "stateMutability": "view",
      "type": "function"
    },
    {
      "constant": true,
      "inputs": [
        {
          "name": "",
          "type": "uint256"
        }
      ],
      "name": "candidates",
      "outputs": [
        {
          "name": "id",
          "type": "uint256"
        },
        {
          "name": "name",
          "type": "string"
        },
        {
          "name": "voteCount",
          "type": "uint256"
        }
      ],
      "payable": false,
      "stateMutability": "view",
      "type": "function"
    },
    {
      "inputs": [],
      "payable": false,
      "stateMutability": "nonpayable",
      "type": "constructor"
    }
  ],
  "bytecode": "0x608060405234801561001057600080fd5b5061005e6040805190810160405280600681526020017f44657874657200000000000000000000000000000000000000000000000000008152506100fd640100000000026401000000009004565b6100ab6040805190810160405280600a81526020017f48656973656e62657267000000000000000000000000000000000000000000008152506100fd640100000000026401000000009004565b6100f86040805190810160405280600b81526020017f4272756365205761796e650000000000000000000000000000000000000000008152506100fd640100000000026401000000009004565b61021e565b600160008154809291906001019190505550606060405190810160405280600154815260200182815260200160008152506000806001548152602001908152602001600020600082015181600001556020820151816001019080519060200190610168929190610179565b506040820151816002015590505050565b828054600181600116156101000203166002900490600052602060002090601f016020900481019282601f106101ba57805160ff19168380011785556101e8565b828001600101855582156101e8579182015b828111156101e75782518255916020019190600101906101cc565b5b5090506101f591906101f9565b5090565b61021b91905b808211156102175760008160009055506001016101ff565b5090565b90565b6102248061022d6000396000f30060806040526004361061004c576000357c0100000000000000000000000000000000000000000000000000000000900463ffffffff1680632d35a8a2146100515780633477ee2e1461007c575b600080fd5b34801561005d57600080fd5b50610066610130565b6040518082815260200191505060405180910390f35b34801561008857600080fd5b506100a760048036038101908080359060200190929190505050610136565b6040518084815260200180602001838152602001828103825284818151815260200191508051906020019080838360005b838110156100f35780820151818401526020810190506100d8565b50505050905090810190601f1680156101205780820380516001836020036101000a031916815260200191505b5094505050505060405180910390f35b60015481565b6000602052806000526040600020600091509050806000015490806001018054600181600116156101000203166002900480601f0160208091040260200160405190810160405280929190818152602001828054600181600116156101000203166002900480156101e85780601f106101bd576101008083540402835291602001916101e8565b820191906000526020600020905b8154815290600101906020018083116101cb57829003601f168201915b50505050509080600201549050835600a165627a7a72305820f88fcba15f0d4b19bb454dd0c768164203fbc9fc62da55d28d2ac71fadd9b2590029",
  "source": "pragma solidity ^0.4.11;\r\n\r\ncontract Election{\r\n\t//model candidate\r\n\tstruct Candidate {\r\n\t\tuint id;\r\n\t\tstring name;\r\n\t\tuint voteCount;\r\n\t}\r\n\t//Store Candidates\r\n\t//string public candidate;\r\n\t//Fetching a candidate\r\n\tmapping(uint => Candidate) public candidates;\r\n\t//store candidates count\r\n\tuint public candidatesCount;\r\n\r\n\t//constructor\r\n\tfunction Election () public {\r\n\t\t//candidate = \"Rudy\";\r\n\t\taddCandidate(\"Dexter\");\r\n\t\taddCandidate(\"Heisenberg\");\r\n\t\taddCandidate(\"Bruce Wayne\");\r\n\t}\r\n\r\n\tfunction addCandidate (string _name) private {\r\n\t\tcandidatesCount++;\r\n\t\tcandidates[candidatesCount] = Candidate(candidatesCount, _name, 0);\r\n\t}\r\n}",
  "sourcePath": "F:\\election\\contracts\\Election.sol",
  "compiler": {
    "name": "solc",
    "version": "0.4.24+commit.e67f0147.Emscripten.clang"
  },
  "schemaVersion": "2.0.1",
  "updatedAt": "2018-12-20T10:25:11.427Z"
}